:100000000C945A000C9479000C9479000C947900AB
:100010000C9479000C9479000C9479000C9479007C
:100020000C9479000C9479000C9479000C9479006C
:100030000C9479000C946D010C9479000C94790067
:100040000C9479000C9479000C9479000C9479004C
:100050000C9479000C9479000C9479000C9479003C
:100060000C9479000C9479000C9479000C9479002C
:100070000C9479000C9479000C9479000C9479001C
:100080000C9479000C9479000C9479008D049204FE
:1000900097043205CD05D205D705E505F305010620
:1000A000700670062A06300636063D0644064F06E0
:1000B0005A06650611241FBECFEFD0E4DEBFCDBFC8
:1000C00011E0A0E0B1E0E2E0F3E100E00BBF02C02C
:1000D00007900D92A032B107D9F721E0A0E2B1E07C
:1000E00001C01D92A136B207E1F70E9465070C948A
:1000F0007F090C940000CF93DF9300D01F92CDB7FF
:10010000DEB789837B836A8389818A3031F48A816F
:100110009B81BC018DE00E947B0080EC90E0FC01A3
:100120008081882F90E080729927892BB1F386EC2B
:1001300090E02981FC01208380E090E00F900F90F7
:100140000F90DF91CF910895CF93DF93CDB7DEB7B6
:100150002C970FB6F894DEBF0FBECDBF6D837E83A4
:100160008F83988729873A874B875C878D819E810B
:10017000AF81B88529853A854B855C85BC01CD0169
:100180000E945409DC01CB0189839A83AB83BC8331
:1001900089819A81AB81BC81892B8A2B8B2B29F495
:1001A00089859A85AB85BC8511C089859A85AB8583
:1001B000BC858D839E83AF83B88789819A81AB810B
:1001C000BC8189879A87AB87BC87D0CFBC01CD0122
:1001D0002C960FB6F894DEBF0FBECDBFDF91CF9146
:1001E0000895CF93DF9300D000D0CDB7DEB76983F9
:1001F0007A838B839C8389819A81AB81BC81809334
:100200000E0190930F01A0931001B0931101809102
:100210000E0190910F01A0911001B09111018093F6
:10022000210190932201A0932301B09324010000A7
:100230000F900F900F900F90DF91CF910895CF9373
:10024000DF93CDB7DEB781E890E02BE0FC0120839F
:1002500088E890E02DE730E0FC01318320838FE6D1
:1002600090E022E0FC01208384E890E0FC01118210
:10027000108280910E0190910F01A0911001B09118
:1002800011018093210190932201A0932301B09347
:1002900024018FE590E02FE530E0F901208120680E
:1002A000FC0120830000DF91CF910895CF93DF936D
:1002B000CDB7DEB781E890E0FC0110820000DF914D
:1002C000CF910895CF93DF93CDB7DEB781E08093D0
:1002D00020010000DF91CF9108951F920F920090AE
:1002E0005F000F92112400905B000F922F933F93B9
:1002F0004F935F936F937F938F939F93AF93BF932E
:10030000EF93FF93CF93DF93CDB7DEB780912101B9
:1003100090912201A0912301B09124010197A1099C
:10032000B1098093210190932201A0932301B093FE
:1003300024018091210190912201A0912301B0918B
:100340002401892B8A2B8B2B91F40E9462018091CE
:100350000E0190910F01A0911001B09111018093B5
:10036000210190932201A0932301B0932401000066
:10037000DF91CF91FF91EF91BF91AF919F918F91BD
:100380007F916F915F914F913F912F910F900092CC
:100390005B000F9000925F000F901F901895CF9315
:1003A000DF9300D01F92CDB7DEB789836A834B837A
:1003B0008B81882371F08A81282F30E081E090E0E2
:1003C00002C0880F991F2A95E2F7982F8981892BFF
:1003D0000EC08A81282F30E081E090E002C0880FB3
:1003E000991F2A95E2F7982F9095898189230F907C
:1003F0000F900F90DF91CF910895CF93DF9300D0AE
:10040000CDB7DEB789836A838A81282F30E081E007
:1004100090E002C0880F991F2A95E2F7982F8981F2
:1004200089230F900F90DF91CF9108950F931F9321
:10043000CF93DF93CDB7DEB702E210E040E064E097
:100440008FEF0E94CF01F8018083000080E290E0EE
:10045000FC018081809560E00E94FD01882311F0FD
:1004600081E3D3C080E290E0FC018081809561E06F
:100470000E94FD01882311F084E3C7C080E290E070
:10048000FC018081809562E00E94FD01882311F0CB
:1004900087E3BBC080E290E0FC018081809563E04F
:1004A0000E94FD01882311F08AE2AFC002E210E051
:1004B00040E065E08FEF0E94CF01F80180830000EB
:1004C00080E290E0FC018081809560E00E94FD0167
:1004D000882311F082E399C080E290E0FC018081E2
:1004E000809561E00E94FD01882311F085E38DC0B5
:1004F00080E290E0FC018081809562E00E94FD0135
:10050000882311F088E381C080E290E0FC018081C3
:10051000809563E00E94FD01882311F080E375C09F
:1005200002E210E040E066E08FEF0E94CF01F801A8
:100530008083000080E290E0FC018081809560E093
:100540000E94FD01882311F083E35FC080E290E008
:10055000FC018081809561E00E94FD01882311F0FB
:1005600086E353C080E290E0FC018081809562E0E8
:100570000E94FD01882311F089E347C080E290E0EA
:10058000FC018081809563E00E94FD01882311F0C9
:1005900083E23BC002E210E040E067E08FEF0E94A0
:1005A000CF01F8018083000080E290E0FC018081AF
:1005B000809560E00E94FD01882311F081E425C050
:1005C00080E290E0FC018081809561E00E94FD0165
:1005D000882311F082E419C080E290E0FC01808160
:1005E000809562E00E94FD01882311F083E40DC034
:1005F00080E290E0FC018081809563E00E94FD0133
:10060000882311F084E401C080E0DF91CF911F9135
:100610000F910895CF93DF9300D0CDB7DEB79A83C3
:1006200089830E9416028093280183E290E0FC01F6
:100630008081809584708093250189819A818130A1
:10064000910559F18230910509F44AC0892B09F0CE
:100650006AC080912501843031F41A82198281EFB9
:100660008093130163C080912801882319F41A82B2
:1006700019825CC080912801813329F481E090E0E7
:100680009A83898353C080912801823309F04EC038
:1006900082E090E09A83898349C08091250184306B
:1006A00031F41A82198281EF8093130141C0809145
:1006B0002801882319F41A8219823AC080912801EE
:1006C000813329F481E090E09A83898331C080915D
:1006D0002801823369F582E090E09A83898328C0FB
:1006E00080912501843031F41A82198281EF809340
:1006F000130120C080912801882319F41A821982DD
:1007000019C080912801843329F481E090E09A8314
:10071000898310C080912801853361F482E090E0E4
:100720009A83898307C01A82198205C0000003C01A
:10073000000001C0000089819A818130910531F06B
:100740008230910571F0892BD1F01EC08091130188
:10075000883FB9F0809113018695806880931301DA
:1007600010C080911301833E71F080911301882F96
:1007700090E0880F991F81608093130104C00000EE
:1007800003C0000001C0000089819A810F900F9082
:10079000DF91CF910895CF93DF9300D01F92CDB713
:1007A000DEB79B838A83198283E290E0FC0180811B
:1007B0008095837089838A819B818130910519F1AD
:1007C00082309105E9F1892B09F057C0809125010C
:1007D000843031F41B821A8281EF8093150150C05E
:1007E0008981813029F481E090E09B838A8348C02D
:1007F0008981823029F482E090E09B838A8340C023
:100800001B821A823DC080912501843031F41B8205
:100810001A8281EF8093130133C08981813029F4DA
:1008200081E090E09B838A832BC08981823029F408
:1008300082E090E09B838A8323C01B821A8220C0BF
:1008400080912501843031F41B821A8281EF8093DC
:10085000130116C08981813029F481E090E09B83E7
:100860008A830EC08981823029F482E090E09B83E4
:100870008A8306C01B821A8203C01B821A82000070
:100880008A819B818130910531F08230910571F030
:10089000892BD1F01EC080911501883FB9F080915D
:1008A0001501869580688093150110C0809115010F
:1008B000833E71F080911501882F90E0880F991F79
:1008C00081608093150104C0000003C0000001C0D6
:1008D00000008A819B810F900F900F90DF91CF9144
:1008E0000895CF93DF9300D0CDB7DEB79A83898385
:1008F00089819A81092E000CAA0BBB0B40E050E0C5
:1009000029E030E0841B950B2817390708F487C1CC
:100910008A5B9F4FFC010C94760981E090E09A83FA
:10092000898383C182E090E09A8389837EC180912C
:100930001601803409F087C0809117018D3F49F47A
:1009400080911301883F29F483E090E09A838983A2
:1009500019C0809117018B3F49F480911301813FA9
:1009600029F483E090E09A8389830CC08091170179
:10097000873F41F480911301833E21F483E090E0AE
:100980009A838983809117018E3F61F480911301CE
:10099000883F41F486E090E09A83898381E08093E8
:1009A00026011FC0809117018D3F61F480911301D2
:1009B000813F41F486E090E09A83898382E08093CE
:1009C00026010FC0809117018B3F59F480911301CC
:1009D000833E39F486E090E09A83898383E08093B4
:1009E0002601809117018B3F61F480911301883FAC
:1009F00041F487E090E09A83898381E08093260127
:100A000030C080911701873F61F480911301813FCD
:100A100041F487E090E09A83898382E08093260105
:100A200020C0809117018F3E09F0FCC08091130116
:100A3000833E09F0F7C087E090E09A83898383E0E2
:100A400080932601EFC080911601803829F484E05C
:100A500090E09A838983E6C082E090E09A8389835C
:100A6000E1C0E0C080911601823009F087C080911A
:100A700017018D3F49F480911501883F29F482E0E8
:100A800090E09A83898319C0809117018B3F49F4C4
:100A900080911501813F29F482E090E09A83898357
:100AA0000CC080911701873F41F480911501833E6E
:100AB00021F482E090E09A838983809117018E3F30
:100AC00061F480911501883F41F488E090E09A83B9
:100AD000898381E0809326011FC0809117018D3F9B
:100AE00061F480911501813F41F488E090E09A83A0
:100AF000898382E0809326010FC0809117018B3F8C
:100B000059F480911501833E39F488E090E09A838E
:100B1000898383E080932601809117018B3F61F4E4
:100B200080911501883F41F489E090E09A838983A0
:100B300081E08093260130C080911701873F61F4E6
:100B400080911501813F41F489E090E09A83898387
:100B500082E08093260120C0809117018F3E09F02A
:100B600063C080911501833E09F05EC089E090E08A
:100B70009A83898383E08093260156C08091160171
:100B8000813029F485E090E09A8389834DC083E029
:100B900090E09A83898348C047C082E090E09A83BE
:100BA000898343C083E090E09A8389833EC080912B
:100BB00017018F3E29F487E090E09A83898335C03E
:100BC00083E090E09A83898330C0809117018E3F43
:100BD00029F486E090E09A83898327C083E090E03F
:100BE0009A83898322C0809117018F3E29F489E07E
:100BF00090E09A83898319C082E090E09A83898388
:100C000014C0809117018E3F29F488E090E09A8308
:100C100089830BC082E090E09A83898306C01A82A0
:100C2000198203C0000001C0000089819A81092E49
:100C3000000CAA0BBB0B40E050E029E030E0841B25
:100C4000950B2817390708F44CC0805B9F4FFC01B7
:100C50000C94760980911601880F8093160141C08B
:100C6000809116018695809316013BC088E08093A1
:100C700016018BEF8093170134C080E18093160139
:100C80008BEF809317012DC080911601869580937C
:100C9000160180911701869580931701F5CF8091F9
:100CA000160186958093160180911701880F809315
:100CB0001701F5CF80911601880F8093160180915E
:100CC0001701869580931701F5CF80911601880F43
:100CD0008093160180911701880F80931701F5CF3B
:100CE000000089819A810F900F90DF91CF91089534
:100CF000CF93DF9300D0CDB7DEB79A838983898104
:100D00009A81009719F0019731F0B5C081E090E029
:100D10009A838983B5C080912901853019F4109296
:100D2000290105C0809129018F5F809329011092CC
:100D30002A019BC080912A01882F90E0845A9E4FFF
:100D4000FC01108280911701882F90E020912A01E8
:100D5000222F30E002C0959587952A95E2F78170A1
:100D60009927892B51F480912A01882F90E02091B6
:100D70001601845A9E4FFC01208380911301882F15
:100D800090E020912A01222F30E002C095958795AE
:100D90002A95E2F781709927892B99F480912A018D
:100DA000882F90E020912A01222F30E0245A3E4FD4
:100DB000F901308120911201232B845A9E4FFC01AE
:100DC000208380911501882F90E020912A01222F05
:100DD00030E002C0959587952A95E2F781709927B2
:100DE000892B99F480912A01882F90E020912A0183
:100DF000222F30E0245A3E4FF90130812091140116
:100E0000232B845A9E4FFC012083909117018091DF
:100E100013019823809115018923882F90E0209158
:100E20002A01222F30E002C0959587952A95E2F796
:100E300081709927892BA1F480912A01882F90E055
:100E400020912A01422F50E021E030E002C0220F21
:100E5000331F4A95E2F72095895A9E4FFC01208363
:100E600080912A018F5F80932A0180912A01853029
:100E700008F460CF05C081E090E09A838983000088
:100E800089819A81019709F019C088E290E0209148
:100E90002901222F30E0245A3E4FF9012081FC0124
:100EA00020838BE290E020912901222F30E0295A03
:100EB0003E4FF9012081FC012083000089819A8145
:100EC0000F900F90DF91CF9108950F931F93CF93C1
:100ED000DF93CDB7DEB767970FB6F894DEBF0FBECE
:100EE000CDBF81E290E020EFFC01208382E290E020
:100EF0002FE0FC01208384E290E0FC01108285E277
:100F000090E02FEFFC01208387E290E02FEFFC01BF
:100F1000208388E290E02FEFFC0120838AE290E0BA
:100F20002FE1FC0120838BE290E020E8FC0120838C
:100F300088E0E8E1F1E0DE01509601900D928A959B
:100F4000E1F784E090E09E878D878FEF8F878F8514
:100F500080932B0186E990E0A0E0B0E080932C0123
:100F600090932D01A0932E01B0932F0180912C011D
:100F700090912D01A0912E01B0912F01809330010D
:100F800090933101A0933201B09333018AE093E052
:100F900090933501809334018F858093360186E9E3
:100FA00090E0A0E0B0E08093370190933801A093E7
:100FB0003901B0933A018091370190913801A091A5
:100FC0003901B0913A0180933B0190933C01A09389
:100FD0003D01B0933E018BEC93E0909340018093F0
:100FE0003F018F858093410186E990E0A0E0B0E069
:100FF0008093420190934301A0934401B093450133
:101000008091420190914301A0914401B09145012A
:101010008093460190934701A0934801B093490102
:1010200081E794E090934B0180934A018F858093F0
:101030004C0181E090E0A0E0B0E080934D019093FE
:101040004E01A0934F01B093500180914D019091BA
:101050004E01A0914F01B0915001809351019093A6
:101060005201A0935301B093540188E796E0909306
:1010700056018093550188899989FC01818192816B
:10108000A381B48189839A83AB83BC8381E090E0A0
:10109000A0E0B0E08D839E83AF83B8872BC08D81A5
:1010A0009E81880F991F9E012F5F3F4F820F931FD4
:1010B0000F96FC0180819181FC0121813281438165
:1010C000548189819A81AB81BC81BC01CD010E9490
:1010D000A400DC01CB0189839A83AB83BC838D811F
:1010E0009E81AF81B8850196A11DB11D8D839E8320
:1010F000AF83B8878D859E859C0140E050E08D814F
:101100009E81AF81B88582179307A407B50738F28F
:1011100089819A81AB81BC81BC01CD010E94F10023
:101120000E941F0119861A861B861C86A6C0898507
:101130009A85880F991F9E012F5F3F4F820F931F43
:101140000F96FC0180819181FC01258136814781C8
:10115000508589859A85880F991FBE016F5F7F4FE3
:10116000860F971F0F96FC0180819181FC01818180
:101170009281A381B481281739074A075B0709F0D8
:1011800045C089859A85880F991F9E012F5F3F4F23
:10119000820F931F0F96FC010081118189859A852A
:1011A000880F991F9E012F5F3F4F820F931F0F964D
:1011B000FC0180819181FC012185328589859A8598
:1011C000880F991FAE014F5F5F4F840F951F0F96D9
:1011D000FC0180819181FC018081082E000C990B1B
:1011E000F9010995F801808389859A85880F991FEF
:1011F0009E012F5F3F4F820F931F0F96FC0180814E
:101200009181FC01158216821782108689859A8544
:10121000880F991F9E012F5F3F4F820F931F0F96DC
:10122000FC016081718189859A85880F991F9E01D3
:101230002F5F3F4F820F931F0F96FC01808191819A
:10124000FC01258136814781508589819A81AB8156
:10125000BC81820F931FA41FB51FFB01858396835A
:10126000A783B08789859A85AB85BC850196A11D2A
:10127000B11D89879A87AB87BC878D859E859C0128
:1012800040E050E089859A85AB85BC85821793073D
:10129000A407B50708F44BCF0000809120018823F4
:1012A000E1F3109220013ECFA1E21A2EAA1BBB1B34
:1012B000FD010DC0AA1FBB1FEE1FFF1FA217B30722
:1012C000E407F50720F0A21BB30BE40BF50B661F38
:1012D000771F881F991F1A9469F7609570958095FC
:1012E00090959B01AC01BD01CF010895EE0FFF1F4A
:1012F0000024001C0BBE0790F691E02D0994F89491
:02130000FFCF1D
:1013020000000002000000007B000000000001005D
:10131200000080F101F108FB2B01360141014C0173
:00000001FF
