:100000000C9446000C9465000C9465000C946500FB
:100010000C9465000C9465000C9465000C946500CC
:100020000C9465000C9465000C9465000C946500BC
:100030000C9465000C9459010C9465000C946500B7
:100040000C9465000C9465000C9465000C9465009C
:100050000C9465000C9465000C9465000C9465008C
:100060000C9465000C9465000C9465000C9465007C
:100070000C9465000C9465000C9465000C9465006C
:100080000C9465000C9465000C94650011241FBE4F
:10009000CFEFD0E4DEBFCDBF11E0A0E0B1E0E6E9F4
:1000A000F0E100E00BBF02C007900D92A032B10753
:1000B000D9F721E0A0E2B1E001C01D92AF35B2074F
:1000C000E1F70E9438060C9449080C940000CF9385
:1000D000DF9300D01F92CDB7DEB789837B836A831D
:1000E00089818A3031F48A819B81BC018DE00E9434
:1000F000670080EC90E0FC018081882F90E08072A6
:100100009927892BB1F386EC90E02981FC012083AB
:1001100080E090E00F900F900F90DF91CF910895C5
:10012000CF93DF93CDB7DEB72C970FB6F894DEBF31
:100130000FBECDBF6D837E838F83988729873A87D3
:100140004B875C878D819E81AF81B88529853A85F3
:100150004B855C85BC01CD010E942708DC01CB01E9
:1001600089839A83AB83BC8389819A81AB81BC816B
:10017000892B8A2B8B2B29F489859A85AB85BC85A5
:1001800011C089859A85AB85BC858D839E83AF839D
:10019000B88789819A81AB81BC8189879A87AB872F
:1001A000BC87D0CFBC01CD012C960FB6F894DEBF32
:1001B0000FBECDBFDF91CF910895CF93DF9300D0D5
:1001C00000D0CDB7DEB769837A838B839C83898126
:1001D0009A81AB81BC8180930E0190930F01A09313
:1001E0001001B093110180910E0190910F01A09127
:1001F0001001B09111018093210190932201A093ED
:100200002301B093240100000F900F900F900F90E6
:10021000DF91CF910895CF93DF93CDB7DEB781E81B
:1002200090E02BE0FC01208388E890E02DE730E0AF
:10023000FC01318320838FE690E022E0FC012083E3
:1002400084E890E0FC011182108280910E0190916F
:100250000F01A0911001B0911101809321019093A1
:100260002201A0932301B09324018FE590E02FE5B4
:1002700030E0F90120812068FC0120830000DF913B
:10028000CF910895CF93DF93CDB7DEB781E890E0AB
:10029000FC0110820000DF91CF910895CF93DF938E
:1002A000CDB7DEB781E0809320010000DF91CF91D0
:1002B00008951F920F9200905F000F9211240090FA
:1002C0005B000F922F933F934F935F936F937F93B6
:1002D0008F939F93AF93BF93EF93FF93CF93DF934E
:1002E000CDB7DEB78091210190912201A091230129
:1002F000B09124010197A109B10980932101909344
:100300002201A0932301B0932401809121019091B7
:100310002201A0912301B0912401892B8A2B8B2BE0
:1003200091F40E944E0180910E0190910F01A091D5
:100330001001B09111018093210190932201A093AB
:100340002301B09324010000DF91CF91FF91EF9141
:10035000BF91AF919F918F917F916F915F914F91DD
:100360003F912F910F9000925B000F9000925F00E1
:100370000F901F901895CF93DF9300D01F92CDB7A9
:10038000DEB789836A834B838B81882371F08A81EE
:10039000282F30E081E090E002C0880F991F2A9555
:1003A000E2F7982F8981892B0EC08A81282F30E0AF
:1003B00081E090E002C0880F991F2A95E2F7982FFC
:1003C0009095898189230F900F900F90DF91CF91A5
:1003D0000895CF93DF9300D0CDB7DEB789836A83CA
:1003E0008A81282F30E081E090E002C0880F991FB9
:1003F0002A95E2F7982F898189230F900F90DF913A
:10040000CF9108950F931F93CF93DF93CDB7DEB7AE
:1004100002E210E040E064E08FEF0E94BB01F801CF
:100420008083000080E290E0FC018081809560E0A4
:100430000E94E901882311F081E3D3C080E290E0BB
:10044000FC018081809561E00E94E901882311F020
:1004500084E3C7C080E290E0FC018081809562E087
:100460000E94E901882311F087E3BBC080E290E09D
:10047000FC018081809563E00E94E901882311F0EE
:100480008AE2AFC002E210E040E065E08FEF0E9438
:10049000BB01F8018083000080E290E0FC018081D4
:1004A000809560E00E94E901882311F082E399C001
:1004B00080E290E0FC018081809561E00E94E9018A
:1004C000882311F085E38DC080E290E0FC018081FB
:1004D000809562E00E94E901882311F088E381C0E1
:1004E00080E290E0FC018081809563E00E94E90158
:1004F000882311F080E375C002E210E040E066E07E
:100500008FEF0E94BB01F8018083000080E290E041
:10051000FC018081809560E00E94E901882311F050
:1005200083E35FC080E290E0FC018081809561E020
:100530000E94E901882311F086E353C080E290E035
:10054000FC018081809562E00E94E901882311F01E
:1005500089E347C080E290E0FC018081809563E000
:100560000E94E901882311F083E23BC002E210E01F
:1005700040E067E08FEF0E94BB01F801808300003C
:1005800080E290E0FC018081809560E00E94E901BA
:10059000882311F081E425C080E290E0FC01808195
:1005A000809561E00E94E901882311F082E419C07E
:1005B00080E290E0FC018081809562E00E94E90188
:1005C000882311F083E40DC080E290E0FC0180817B
:1005D000809563E00E94E901882311F084E401C062
:1005E00080E0DF91CF911F910F910895CF93DF931A
:1005F00000D0CDB7DEB79A8389830E940202809330
:10060000260183E290E0FC018081809584708093D4
:10061000250189819A818130910559F182309105B6
:1006200009F44AC0892B09F06AC080912501843001
:1006300031F41A82198283EF8093130163C0809191
:100640002601882319F41A8219825CC08091260140
:10065000813329F481E090E09A83898353C08091AB
:100660002601823309F04EC082E090E09A838983AC
:1006700049C080912501843031F41A82198283EFB8
:100680008093130141C080912601882319F41A82B6
:1006900019823AC080912601813329F481E090E0EB
:1006A0009A83898331C080912601823369F582E083
:1006B00090E09A83898328C080912501843031F4A9
:1006C0001A82198283EF8093130120C08091260142
:1006D000882319F41A82198219C080912601813366
:1006E00029F481E090E09A83898310C080912601EB
:1006F000823361F482E090E09A83898307C01A8292
:10070000198205C0000003C0000001C000008981FB
:100710009A818130910531F08230910571F0892BF9
:10072000D1F01EC0809113018C3FB9F0809113016C
:10073000869580688093130110C080911301873ED5
:1007400071F080911301882F90E0880F991F8160CC
:100750008093130104C0000003C0000001C000002A
:1007600089819A810F900F90DF91CF910895CF9357
:10077000DF9300D01F92CDB7DEB79B838A831982A7
:1007800083E290E0FC0180818095837089838A8177
:100790009B818130910519F182309105E9F1892B16
:1007A00009F057C080912501843031F41B821A82F0
:1007B00083EF8093150150C08981813029F481E055
:1007C00090E09B838A8348C08981823029F482E04B
:1007D00090E09B838A8340C01B821A823DC0809137
:1007E0002501843031F41B821A8283EF8093130138
:1007F00033C08981813029F481E090E09B838A8332
:100800002BC08981823029F482E090E09B838A8327
:1008100023C01B821A8220C080912501843031F4CC
:100820001B821A8283EF8093130116C08981813065
:1008300029F481E090E09B838A830EC08981823015
:1008400029F482E090E09B838A8306C01B821A828F
:1008500003C01B821A8200008A819B81813091052E
:1008600031F08230910571F0892BD1F01EC080915A
:1008700015018C3FB9F080911501869580688093B1
:10088000150110C080911501873E71F0809115010E
:10089000882F90E0880F991F81608093150104C014
:1008A000000003C0000001C000008A819B810F90FE
:1008B0000F900F90DF91CF910895CF93DF9300D0E9
:1008C000CDB7DEB79A83898389819A818230910579
:1008D00009F45DC0833091052CF4009749F001972D
:1008E000B1F093C08330910541F0049759F08DC069
:1008F00081E090E09A83898390C081E090E09A83C0
:1009000089838BC082E090E09A83898386C080913E
:100910001601803469F5809117018D3F49F480916B
:1009200013018C3F29F482E090E09A8389832EC0E2
:10093000809117018B3F69F480911301833F21F06F
:1009400080911301893F29F482E090E09A838983A2
:100950001DC080911701873F09F05CC08091130191
:10096000873E09F057C082E090E09A83898352C0A5
:1009700080911601803829F483E090E09A8389837E
:1009800049C081E090E09A83898344C043C080914C
:100990001601823059F5809117018D3F49F48091FD
:1009A00015018C3F29F481E090E09A8389832CC063
:1009B000809117018B3F69F480911501833F21F0ED
:1009C00080911501893F29F481E090E09A83898321
:1009D0001BC080911701873FF9F480911501873E74
:1009E000D9F481E090E09A83898316C08091160142
:1009F000813029F484E090E09A8389830DC082E0FD
:100A000090E09A83898308C007C081E090E09A83D0
:100A1000898303C0000001C0000089819A8182306F
:100A2000910549F1833091052CF4009749F0019725
:100A3000E1F027C08330910551F0049779F021C08F
:100A400088E0809316018BEF809317011AC088E02D
:100A5000809316018BEF8093170113C080E1809380
:100A600016018BEF809317010CC080911601880F3F
:100A70008093160106C08091160186958093160119
:100A8000000089819A810F900F90DF91CF91089596
:100A9000CF93DF9300D0CDB7DEB79A838983898166
:100AA0009A81009719F0019731F0B5C081E090E08C
:100AB0009A838983B5C080912701853019F41092FB
:100AC000270105C0809127018F5F80932701109235
:100AD00028019BC080912801882F90E0865A9E4F64
:100AE000FC01108280911701882F90E0209128014D
:100AF000222F30E002C0959587952A95E2F7817004
:100B00009927892B51F480912801882F90E020911A
:100B10001601865A9E4FFC01208380911301882F75
:100B200090E020912801222F30E002C09595879512
:100B30002A95E2F781709927892B99F480912801F1
:100B4000882F90E020912801222F30E0265A3E4F36
:100B5000F901308120911201232B865A9E4FFC010E
:100B6000208380911501882F90E020912801222F69
:100B700030E002C0959587952A95E2F78170992714
:100B8000892B99F480912801882F90E020912801E9
:100B9000222F30E0265A3E4FF90130812091140176
:100BA000232B865A9E4FFC01208390911701809140
:100BB00013019823809115018923882F90E02091BB
:100BC0002801222F30E002C0959587952A95E2F7FB
:100BD00081709927892BA1F480912801882F90E0BA
:100BE00020912801422F50E021E030E002C0220F86
:100BF000331F4A95E2F720958B5A9E4FFC012083C4
:100C0000809128018F5F8093280180912801853091
:100C100008F460CF05C081E090E09A8389830000EA
:100C200089819A810097E1F0019709F01AC088E262
:100C300090E020912701222F30E0265A3E4FF90103
:100C40002081FC0120838BE290E020912701222F5C
:100C500030E02B5A3E4FF9012081FC01208301C076
:100C6000000089819A810F900F90DF91CF910895B4
:100C70000F931F93CF93DF93CDB7DEB767970FB670
:100C8000F894DEBF0FBECDBF81E290E020EFFC0103
:100C9000208382E290E02FE0FC01208384E290E058
:100CA000FC01108285E290E02FEFFC01208387E2B7
:100CB00090E02FEFFC01208388E290E02FEFFC0111
:100CC00020838AE290E02FE1FC0120838BE290E018
:100CD00020E8FC01208388E0E8E1F1E0DE015096A5
:100CE00001900D928A95E1F784E090E09E878D87D0
:100CF0008FEF8F878F858093290186E990E0A0E0B0
:100D0000B0E080932A0190932B01A0932C01B09323
:100D10002D0180912A0190912B01A0912C01B0917D
:100D20002D0180932E0190932F01A0933001B09359
:100D3000310186EF92E090933301809332018F85E9
:100D40008093340186E990E0A0E0B0E08093350123
:100D500090933601A0933701B0933801809135010B
:100D600090913601A0913701B091380180933901FB
:100D700090933A01A0933B01B0933C0187EB93E041
:100D800090933E0180933D018F8580933F0186E9DA
:100D900090E0A0E0B0E08093400190934101A093E7
:100DA0004201B09343018091400190914101A09193
:100DB0004201B09143018093440190934501A09377
:100DC0004601B09347018DE594E0909349018093EB
:100DD00048018F8580934A0181E090E0A0E0B0E077
:100DE00080934B0190934C01A0934D01B0934E0121
:100DF00080914B0190914C01A0914D01B0914E0119
:100E000080934F0190935001A0935101B0935201F0
:100E100088E495E0909354018093530188899989DF
:100E2000FC0181819281A381B48189839A83AB8300
:100E3000BC8381E090E0A0E0B0E08D839E83AF832F
:100E4000B8872BC08D819E81880F991F9E012F5FCF
:100E50003F4F820F931F0F96FC0180819181FC010F
:100E6000218132814381548189819A81AB81BC8106
:100E7000BC01CD010E949000DC01CB0189839A83E3
:100E8000AB83BC838D819E81AF81B8850196A11D06
:100E9000B11D8D839E83AF83B8878D859E859C0110
:100EA00040E050E08D819E81AF81B8858217930725
:100EB000A407B50738F289819A81AB81BC81BC0156
:100EC000CD010E94DD000E940B0119861A861B8647
:100ED0001C86A6C089859A85880F991F9E012F5F61
:100EE0003F4F820F931F0F96FC0180819181FC017F
:100EF000258136814781508589859A85880F991F7C
:100F0000BE016F5F7F4F860F971F0F96FC01808198
:100F10009181FC0181819281A381B48128173907D5
:100F20004A075B0709F045C089859A85880F991F94
:100F30009E012F5F3F4F820F931F0F96FC01008190
:100F4000118189859A85880F991F9E012F5F3F4FD8
:100F5000820F931F0F96FC0180819181FC012185F6
:100F6000328589859A85880F991FAE014F5F5F4F43
:100F7000840F951F0F96FC0180819181FC01808177
:100F8000082E000C990BF9010995F80180838985D9
:100F90009A85880F991F9E012F5F3F4F820F931FE5
:100FA0000F96FC0180819181FC01158216821782C7
:100FB000108689859A85880F991F9E012F5F3F4F64
:100FC000820F931F0F96FC016081718189859A853C
:100FD000880F991F9E012F5F3F4F820F931F0F961F
:100FE000FC0180819181FC012581368147815085FA
:100FF00089819A81AB81BC81820F931FA41FB51F89
:10100000FB0185839683A783B08789859A85AB8505
:10101000BC850196A11DB11D89879A87AB87BC87C6
:101020008D859E859C0140E050E089859A85AB8541
:10103000BC8582179307A407B50708F44BCF0000BF
:10104000809120018823E1F3109220013ECFA1E29C
:101050001A2EAA1BBB1BFD010DC0AA1FBB1FEE1F32
:10106000FF1FA217B307E407F50720F0A21BB30B7D
:10107000E40BF50B661F771F881F991F1A9469F7F9
:1010800060957095809590959B01AC01BD01CF0155
:061090000895F894FFCF63
:1010960000000002000000006700000000000100E0
:1010A600000080F301F308FB290134013F014A01E6
:00000001FF
